{
  "contractName": "SupplyChain",
  "abi": [
    {
      "constant": false,
      "inputs": [
        {
          "name": "_address",
          "type": "address"
        }
      ],
      "name": "removeConsumer",
      "outputs": [],
      "payable": false,
      "stateMutability": "nonpayable",
      "type": "function"
    },
    {
      "constant": false,
      "inputs": [
        {
          "name": "account",
          "type": "address"
        }
      ],
      "name": "addConsumer",
      "outputs": [],
      "payable": false,
      "stateMutability": "nonpayable",
      "type": "function"
    },
    {
      "constant": false,
      "inputs": [
        {
          "name": "_address",
          "type": "address"
        }
      ],
      "name": "removeWholesaler",
      "outputs": [],
      "payable": false,
      "stateMutability": "nonpayable",
      "type": "function"
    },
    {
      "constant": true,
      "inputs": [
        {
          "name": "account",
          "type": "address"
        }
      ],
      "name": "isRetailer",
      "outputs": [
        {
          "name": "",
          "type": "bool"
        }
      ],
      "payable": false,
      "stateMutability": "view",
      "type": "function"
    },
    {
      "constant": true,
      "inputs": [],
      "name": "contractowner",
      "outputs": [
        {
          "name": "",
          "type": "address"
        }
      ],
      "payable": false,
      "stateMutability": "view",
      "type": "function"
    },
    {
      "constant": false,
      "inputs": [],
      "name": "renounceConsumer",
      "outputs": [],
      "payable": false,
      "stateMutability": "nonpayable",
      "type": "function"
    },
    {
      "constant": true,
      "inputs": [
        {
          "name": "account",
          "type": "address"
        }
      ],
      "name": "isWholesaler",
      "outputs": [
        {
          "name": "",
          "type": "bool"
        }
      ],
      "payable": false,
      "stateMutability": "view",
      "type": "function"
    },
    {
      "constant": false,
      "inputs": [
        {
          "name": "_address",
          "type": "address"
        }
      ],
      "name": "removeRetailer",
      "outputs": [],
      "payable": false,
      "stateMutability": "nonpayable",
      "type": "function"
    },
    {
      "constant": false,
      "inputs": [],
      "name": "renounceOwnership",
      "outputs": [],
      "payable": false,
      "stateMutability": "nonpayable",
      "type": "function"
    },
    {
      "constant": false,
      "inputs": [
        {
          "name": "account",
          "type": "address"
        }
      ],
      "name": "addFarmer",
      "outputs": [],
      "payable": false,
      "stateMutability": "nonpayable",
      "type": "function"
    },
    {
      "constant": false,
      "inputs": [],
      "name": "renounceFarmer",
      "outputs": [],
      "payable": false,
      "stateMutability": "nonpayable",
      "type": "function"
    },
    {
      "constant": true,
      "inputs": [
        {
          "name": "account",
          "type": "address"
        }
      ],
      "name": "isConsumer",
      "outputs": [
        {
          "name": "",
          "type": "bool"
        }
      ],
      "payable": false,
      "stateMutability": "view",
      "type": "function"
    },
    {
      "constant": false,
      "inputs": [
        {
          "name": "account",
          "type": "address"
        }
      ],
      "name": "addRetailer",
      "outputs": [],
      "payable": false,
      "stateMutability": "nonpayable",
      "type": "function"
    },
    {
      "constant": true,
      "inputs": [],
      "name": "isOwner",
      "outputs": [
        {
          "name": "",
          "type": "bool"
        }
      ],
      "payable": false,
      "stateMutability": "view",
      "type": "function"
    },
    {
      "constant": true,
      "inputs": [
        {
          "name": "account",
          "type": "address"
        }
      ],
      "name": "isFarmer",
      "outputs": [
        {
          "name": "",
          "type": "bool"
        }
      ],
      "payable": false,
      "stateMutability": "view",
      "type": "function"
    },
    {
      "constant": false,
      "inputs": [],
      "name": "renounceRetailer",
      "outputs": [],
      "payable": false,
      "stateMutability": "nonpayable",
      "type": "function"
    },
    {
      "constant": false,
      "inputs": [
        {
          "name": "account",
          "type": "address"
        }
      ],
      "name": "addWholesaler",
      "outputs": [],
      "payable": false,
      "stateMutability": "nonpayable",
      "type": "function"
    },
    {
      "constant": false,
      "inputs": [
        {
          "name": "_address",
          "type": "address"
        }
      ],
      "name": "removeFarmer",
      "outputs": [],
      "payable": false,
      "stateMutability": "nonpayable",
      "type": "function"
    },
    {
      "constant": false,
      "inputs": [
        {
          "name": "newOwner",
          "type": "address"
        }
      ],
      "name": "transferOwnership",
      "outputs": [],
      "payable": false,
      "stateMutability": "nonpayable",
      "type": "function"
    },
    {
      "constant": false,
      "inputs": [],
      "name": "renounceWholesaler",
      "outputs": [],
      "payable": false,
      "stateMutability": "nonpayable",
      "type": "function"
    },
    {
      "inputs": [],
      "payable": true,
      "stateMutability": "payable",
      "type": "constructor"
    },
    {
      "anonymous": false,
      "inputs": [
        {
          "indexed": false,
          "name": "upc",
          "type": "uint256"
        }
      ],
      "name": "Harvested",
      "type": "event"
    },
    {
      "anonymous": false,
      "inputs": [
        {
          "indexed": false,
          "name": "upc",
          "type": "uint256"
        }
      ],
      "name": "WSold",
      "type": "event"
    },
    {
      "anonymous": false,
      "inputs": [
        {
          "indexed": false,
          "name": "upc",
          "type": "uint256"
        }
      ],
      "name": "WShipped",
      "type": "event"
    },
    {
      "anonymous": false,
      "inputs": [
        {
          "indexed": false,
          "name": "upc",
          "type": "uint256"
        }
      ],
      "name": "WReceived",
      "type": "event"
    },
    {
      "anonymous": false,
      "inputs": [
        {
          "indexed": false,
          "name": "upc",
          "type": "uint256"
        }
      ],
      "name": "Packaged",
      "type": "event"
    },
    {
      "anonymous": false,
      "inputs": [
        {
          "indexed": false,
          "name": "upc",
          "type": "uint256"
        }
      ],
      "name": "RSold",
      "type": "event"
    },
    {
      "anonymous": false,
      "inputs": [
        {
          "indexed": false,
          "name": "upc",
          "type": "uint256"
        }
      ],
      "name": "RShipped",
      "type": "event"
    },
    {
      "anonymous": false,
      "inputs": [
        {
          "indexed": false,
          "name": "upc",
          "type": "uint256"
        }
      ],
      "name": "RReceived",
      "type": "event"
    },
    {
      "anonymous": false,
      "inputs": [
        {
          "indexed": false,
          "name": "upc",
          "type": "uint256"
        }
      ],
      "name": "Sold",
      "type": "event"
    },
    {
      "anonymous": false,
      "inputs": [
        {
          "indexed": true,
          "name": "oldOwner",
          "type": "address"
        },
        {
          "indexed": true,
          "name": "newOwner",
          "type": "address"
        }
      ],
      "name": "TransferOwnership",
      "type": "event"
    },
    {
      "anonymous": false,
      "inputs": [
        {
          "indexed": true,
          "name": "account",
          "type": "address"
        }
      ],
      "name": "WholesalerAdded",
      "type": "event"
    },
    {
      "anonymous": false,
      "inputs": [
        {
          "indexed": true,
          "name": "account",
          "type": "address"
        }
      ],
      "name": "WholesalerRemoved",
      "type": "event"
    },
    {
      "anonymous": false,
      "inputs": [
        {
          "indexed": true,
          "name": "account",
          "type": "address"
        }
      ],
      "name": "ConsumerAdded",
      "type": "event"
    },
    {
      "anonymous": false,
      "inputs": [
        {
          "indexed": true,
          "name": "account",
          "type": "address"
        }
      ],
      "name": "ConsumerRemoved",
      "type": "event"
    },
    {
      "anonymous": false,
      "inputs": [
        {
          "indexed": true,
          "name": "account",
          "type": "address"
        }
      ],
      "name": "RetailerAdded",
      "type": "event"
    },
    {
      "anonymous": false,
      "inputs": [
        {
          "indexed": true,
          "name": "account",
          "type": "address"
        }
      ],
      "name": "RetailerRemoved",
      "type": "event"
    },
    {
      "anonymous": false,
      "inputs": [
        {
          "indexed": true,
          "name": "account",
          "type": "address"
        }
      ],
      "name": "FarmerAdded",
      "type": "event"
    },
    {
      "anonymous": false,
      "inputs": [
        {
          "indexed": true,
          "name": "account",
          "type": "address"
        }
      ],
      "name": "FarmerRemoved",
      "type": "event"
    },
    {
      "constant": true,
      "inputs": [],
      "name": "checksku",
      "outputs": [
        {
          "name": "",
          "type": "uint256"
        }
      ],
      "payable": false,
      "stateMutability": "view",
      "type": "function"
    },
    {
      "constant": false,
      "inputs": [],
      "name": "kill",
      "outputs": [],
      "payable": false,
      "stateMutability": "nonpayable",
      "type": "function"
    },
    {
      "constant": false,
      "inputs": [
        {
          "name": "_upc",
          "type": "uint256"
        },
        {
          "name": "_originFarmName",
          "type": "string"
        },
        {
          "name": "_originFarmInformation",
          "type": "string"
        },
        {
          "name": "_productNotes",
          "type": "string"
        },
        {
          "name": "_productPrice",
          "type": "uint256"
        }
      ],
      "name": "harvestItem",
      "outputs": [],
      "payable": false,
      "stateMutability": "nonpayable",
      "type": "function"
    },
    {
      "constant": false,
      "inputs": [
        {
          "name": "_upc",
          "type": "uint256"
        }
      ],
      "name": "BuyWhole",
      "outputs": [],
      "payable": true,
      "stateMutability": "payable",
      "type": "function"
    },
    {
      "constant": false,
      "inputs": [
        {
          "name": "_upc",
          "type": "uint256"
        }
      ],
      "name": "ShippedWhole",
      "outputs": [],
      "payable": false,
      "stateMutability": "nonpayable",
      "type": "function"
    },
    {
      "constant": false,
      "inputs": [
        {
          "name": "_upc",
          "type": "uint256"
        }
      ],
      "name": "WholeReceived",
      "outputs": [],
      "payable": false,
      "stateMutability": "nonpayable",
      "type": "function"
    },
    {
      "constant": false,
      "inputs": [
        {
          "name": "_upc",
          "type": "uint256"
        },
        {
          "name": "_price",
          "type": "uint256"
        }
      ],
      "name": "isPackaged",
      "outputs": [],
      "payable": false,
      "stateMutability": "nonpayable",
      "type": "function"
    },
    {
      "constant": false,
      "inputs": [
        {
          "name": "_upc",
          "type": "uint256"
        }
      ],
      "name": "BuyRe",
      "outputs": [],
      "payable": true,
      "stateMutability": "payable",
      "type": "function"
    },
    {
      "constant": false,
      "inputs": [
        {
          "name": "_upc",
          "type": "uint256"
        }
      ],
      "name": "ShippedRe",
      "outputs": [],
      "payable": false,
      "stateMutability": "nonpayable",
      "type": "function"
    },
    {
      "constant": false,
      "inputs": [
        {
          "name": "_upc",
          "type": "uint256"
        },
        {
          "name": "_price",
          "type": "uint256"
        }
      ],
      "name": "ReReceived",
      "outputs": [],
      "payable": false,
      "stateMutability": "nonpayable",
      "type": "function"
    },
    {
      "constant": false,
      "inputs": [
        {
          "name": "_upc",
          "type": "uint256"
        }
      ],
      "name": "Buy",
      "outputs": [],
      "payable": true,
      "stateMutability": "payable",
      "type": "function"
    },
    {
      "constant": false,
      "inputs": [
        {
          "name": "_upc",
          "type": "uint256"
        },
        {
          "name": "_price",
          "type": "uint256"
        }
      ],
      "name": "SetPrice",
      "outputs": [],
      "payable": false,
      "stateMutability": "nonpayable",
      "type": "function"
    },
    {
      "constant": true,
      "inputs": [
        {
          "name": "_upc",
          "type": "uint256"
        }
      ],
      "name": "fetchItemFarmer",
      "outputs": [
        {
          "name": "",
          "type": "uint256"
        },
        {
          "name": "",
          "type": "uint256"
        },
        {
          "name": "",
          "type": "address"
        },
        {
          "name": "",
          "type": "address"
        },
        {
          "name": "",
          "type": "string"
        },
        {
          "name": "",
          "type": "string"
        },
        {
          "name": "",
          "type": "string"
        }
      ],
      "payable": false,
      "stateMutability": "view",
      "type": "function"
    },
    {
      "constant": true,
      "inputs": [
        {
          "name": "_upc",
          "type": "uint256"
        }
      ],
      "name": "fetchItemLogistics",
      "outputs": [
        {
          "name": "",
          "type": "uint256"
        },
        {
          "name": "",
          "type": "uint256"
        },
        {
          "name": "",
          "type": "uint256"
        },
        {
          "name": "",
          "type": "uint8"
        },
        {
          "name": "",
          "type": "address"
        },
        {
          "name": "",
          "type": "address"
        },
        {
          "name": "",
          "type": "address"
        },
        {
          "name": "",
          "type": "address"
        }
      ],
      "payable": false,
      "stateMutability": "view",
      "type": "function"
    }
  ],
  "bytecode": "0x60806040526200001e3362000285640100000000026401000000009004565b33600160006101000a81548173ffffffffffffffffffffffffffffffffffffffff021916908373ffffffffffffffffffffffffffffffffffffffff1602179055506200007933620002ef640100000000026401000000009004565b33600260006101000a81548173ffffffffffffffffffffffffffffffffffffffff021916908373ffffffffffffffffffffffffffffffffffffffff160217905550620000d43362000359640100000000026401000000009004565b33600560006101000a81548173ffffffffffffffffffffffffffffffffffffffff021916908373ffffffffffffffffffffffffffffffffffffffff1602179055506200012f33620003c3640100000000026401000000009004565b33600660006101000a81548173ffffffffffffffffffffffffffffffffffffffff021916908373ffffffffffffffffffffffffffffffffffffffff16021790555033600860006101000a81548173ffffffffffffffffffffffffffffffffffffffff021916908373ffffffffffffffffffffffffffffffffffffffff160217905550600860009054906101000a900473ffffffffffffffffffffffffffffffffffffffff1673ffffffffffffffffffffffffffffffffffffffff16600073ffffffffffffffffffffffffffffffffffffffff167f5c486528ec3e3f0ea91181cff8116f02bfa350e03b8b6f12e00765adbb5af85c60405160405180910390a333600960006101000a81548173ffffffffffffffffffffffffffffffffffffffff021916908373ffffffffffffffffffffffffffffffffffffffff1602179055506001600b819055506001600a8190555062000585565b620002a98160006200042d6401000000000262003024179091906401000000009004565b8073ffffffffffffffffffffffffffffffffffffffff167f2e0ded4123377a3c2bc9a26f1717655a129e2f20752924d42e730ec89c83dbd060405160405180910390a250565b620003138160036200042d6401000000000262003024179091906401000000009004565b8073ffffffffffffffffffffffffffffffffffffffff167f71ae26cad02663e3d92efd6ec56031a80d74a20c0ab4183faa8bf262261c9baa60405160405180910390a250565b6200037d8160046200042d6401000000000262003024179091906401000000009004565b8073ffffffffffffffffffffffffffffffffffffffff167f28b26e7a3d20aedbc5f8f2ebf7da671c0491723a2b78f47a097b0e46dee0714260405160405180910390a250565b620003e78160076200042d6401000000000262003024179091906401000000009004565b8073ffffffffffffffffffffffffffffffffffffffff167fd8a7ad7929975a375d2b12bf49040286b5b105df0fe351f10df6d85e5b7142f760405160405180910390a250565b600073ffffffffffffffffffffffffffffffffffffffff168173ffffffffffffffffffffffffffffffffffffffff16141515156200046a57600080fd5b620004858282620004f0640100000000026401000000009004565b1515156200049257600080fd5b60018260000160008373ffffffffffffffffffffffffffffffffffffffff1673ffffffffffffffffffffffffffffffffffffffff16815260200190815260200160002060006101000a81548160ff0219169083151502179055505050565b60008073ffffffffffffffffffffffffffffffffffffffff168273ffffffffffffffffffffffffffffffffffffffff16141515156200052e57600080fd5b8260000160008373ffffffffffffffffffffffffffffffffffffffff1673ffffffffffffffffffffffffffffffffffffffff16815260200190815260200160002060009054906101000a900460ff16905092915050565b61328080620005956000396000f3006080604052600436106101ac576000357c0100000000000000000000000000000000000000000000000000000000900463ffffffff16806304d30869146101b15780630dd86600146101e85780630e27e3df14610208578063112940f91461024b57806328dc27271461028e5780632cdf034e146102d15780633e328218146102fe57806341c0e1b51461031e5780635da09b88146103355780636098c94c1461039057806361e6982d146103e757806362c99dbe146103fe57806364d1ba1f1461042b57806369e1e1d61461048657806370099ec814610678578063706640d3146106bb578063715018a6146106e657806377e25b23146106fd57806380c3f96d1461082d57806380fc0ce414610870578063834ff739146108875780638ec4f505146108e25780638f32d59b14610925578063956ff995146109545780639729fec614610a5d578063b942906914610a94578063c27c45d814610aef578063db0e6a2f14610b0f578063de63bdb914610b26578063e6bf3fdc14610b69578063f2fde38b14610bac578063f8b3069d14610bef578063f9317dc314610c1c578063fe19d15214610c53575b600080fd5b3480156101bd57600080fd5b506101e66004803603810190808035906020019092919080359060200190929190505050610c6a565b005b61020660048036038101908080359060200190929190505050610db4565b005b34801561021457600080fd5b50610249600480360381019080803573ffffffffffffffffffffffffffffffffffffffff169060200190929190505050611047565b005b34801561025757600080fd5b5061028c600480360381019080803573ffffffffffffffffffffffffffffffffffffffff1690602001909291905050506110af565b005b34801561029a57600080fd5b506102cf600480360381019080803573ffffffffffffffffffffffffffffffffffffffff1690602001909291905050506110cf565b005b3480156102dd57600080fd5b506102fc60048036038101908080359060200190929190505050611137565b005b61031c60048036038101908080359060200190929190505050611265565b005b34801561032a57600080fd5b506103336114f8565b005b34801561034157600080fd5b50610376600480360381019080803573ffffffffffffffffffffffffffffffffffffffff16906020019092919050505061158b565b604051808215151515815260200191505060405180910390f35b34801561039c57600080fd5b506103a56115a8565b604051808273ffffffffffffffffffffffffffffffffffffffff1673ffffffffffffffffffffffffffffffffffffffff16815260200191505060405180910390f35b3480156103f357600080fd5b506103fc6115d2565b005b34801561040a57600080fd5b50610429600480360381019080803590602001909291905050506115dd565b005b34801561043757600080fd5b5061046c600480360381019080803573ffffffffffffffffffffffffffffffffffffffff16906020019092919050505061170b565b604051808215151515815260200191505060405180910390f35b34801561049257600080fd5b506104b160048036038101908080359060200190929190505050611728565b604051808881526020018781526020018673ffffffffffffffffffffffffffffffffffffffff1673ffffffffffffffffffffffffffffffffffffffff1681526020018573ffffffffffffffffffffffffffffffffffffffff1673ffffffffffffffffffffffffffffffffffffffff168152602001806020018060200180602001848103845287818151815260200191508051906020019080838360005b8381101561056957808201518184015260208101905061054e565b50505050905090810190601f1680156105965780820380516001836020036101000a031916815260200191505b50848103835286818151815260200191508051906020019080838360005b838110156105cf5780820151818401526020810190506105b4565b50505050905090810190601f1680156105fc5780820380516001836020036101000a031916815260200191505b50848103825285818151815260200191508051906020019080838360005b8381101561063557808201518184015260208101905061061a565b50505050905090810190601f1680156106625780820380516001836020036101000a031916815260200191505b509a505050505050505050505060405180910390f35b34801561068457600080fd5b506106b9600480360381019080803573ffffffffffffffffffffffffffffffffffffffff1690602001909291905050506119fe565b005b3480156106c757600080fd5b506106d0611a66565b6040518082815260200191505060405180910390f35b3480156106f257600080fd5b506106fb611a70565b005b34801561070957600080fd5b5061072860048036038101908080359060200190929190505050611b8d565b6040518089815260200188815260200187815260200186600881111561074a57fe5b60ff1681526020018573ffffffffffffffffffffffffffffffffffffffff1673ffffffffffffffffffffffffffffffffffffffff1681526020018473ffffffffffffffffffffffffffffffffffffffff1673ffffffffffffffffffffffffffffffffffffffff1681526020018373ffffffffffffffffffffffffffffffffffffffff1673ffffffffffffffffffffffffffffffffffffffff1681526020018273ffffffffffffffffffffffffffffffffffffffff1673ffffffffffffffffffffffffffffffffffffffff1681526020019850505050505050505060405180910390f35b34801561083957600080fd5b5061086e600480360381019080803573ffffffffffffffffffffffffffffffffffffffff169060200190929190505050611fea565b005b34801561087c57600080fd5b5061088561200a565b005b34801561089357600080fd5b506108c8600480360381019080803573ffffffffffffffffffffffffffffffffffffffff169060200190929190505050612015565b604051808215151515815260200191505060405180910390f35b3480156108ee57600080fd5b50610923600480360381019080803573ffffffffffffffffffffffffffffffffffffffff169060200190929190505050612032565b005b34801561093157600080fd5b5061093a612052565b604051808215151515815260200191505060405180910390f35b34801561096057600080fd5b50610a5b60048036038101908080359060200190929190803590602001908201803590602001908080601f0160208091040260200160405190810160405280939291908181526020018383808284378201915050505050509192919290803590602001908201803590602001908080601f0160208091040260200160405190810160405280939291908181526020018383808284378201915050505050509192919290803590602001908201803590602001908080601f0160208091040260200160405190810160405280939291908181526020018383808284378201915050505050509192919290803590602001909291905050506120aa565b005b348015610a6957600080fd5b50610a926004803603810190808035906020019092919080359060200190929190505050612456565b005b348015610aa057600080fd5b50610ad5600480360381019080803573ffffffffffffffffffffffffffffffffffffffff1690602001909291905050506125a0565b604051808215151515815260200191505060405180910390f35b610b0d600480360381019080803590602001909291905050506125bd565b005b348015610b1b57600080fd5b50610b24612850565b005b348015610b3257600080fd5b50610b67600480360381019080803573ffffffffffffffffffffffffffffffffffffffff16906020019092919050505061285b565b005b348015610b7557600080fd5b50610baa600480360381019080803573ffffffffffffffffffffffffffffffffffffffff16906020019092919050505061287b565b005b348015610bb857600080fd5b50610bed600480360381019080803573ffffffffffffffffffffffffffffffffffffffff1690602001909291905050506128e3565b005b348015610bfb57600080fd5b50610c1a6004803603810190808035906020019092919050505061294b565b005b348015610c2857600080fd5b50610c516004803603810190808035906020019092919080359060200190929190505050612a79565b005b348015610c5f57600080fd5b50610c68612b0a565b005b8160066008811115610c7857fe5b600c600083815260200190815260200160002060080160009054906101000a900460ff166008811115610ca757fe5b141515610cb357600080fd5b82600c600082815260200190815260200160002060020160009054906101000a900473ffffffffffffffffffffffffffffffffffffffff1673ffffffffffffffffffffffffffffffffffffffff163373ffffffffffffffffffffffffffffffffffffffff16141515610d2457600080fd5b82600c6000868152602001908152602001600020600701819055506007600c600086815260200190815260200160002060080160006101000a81548160ff02191690836008811115610d7257fe5b02179055507f5826744764fab6854bb460b6b88cb5124733d8fc1fff3b11f20251faa12d43e5846040518082815260200191505060405180910390a150505050565b600080610dc03361170b565b1515610dcb57600080fd5b8260006008811115610dd957fe5b600c600083815260200190815260200160002060080160009054906101000a900460ff166008811115610e0857fe5b141515610e1457600080fd5b83600080600c6000848152602001908152602001600020600701549150813410151515610e4057600080fd5b339550600c6000888152602001908152602001600020600701549450600c600088815260200190815260200160002060030160009054906101000a900473ffffffffffffffffffffffffffffffffffffffff1673ffffffffffffffffffffffffffffffffffffffff166108fc869081150290604051600060405180830381858888f19350505050158015610ed8573d6000803e3d6000fd5b5085600c600089815260200190815260200160002060020160006101000a81548173ffffffffffffffffffffffffffffffffffffffff021916908373ffffffffffffffffffffffffffffffffffffffff16021790555085600c600089815260200190815260200160002060080160016101000a81548173ffffffffffffffffffffffffffffffffffffffff021916908373ffffffffffffffffffffffffffffffffffffffff1602179055506001600c600089815260200190815260200160002060080160006101000a81548160ff02191690836008811115610fb657fe5b02179055507f57cbf0a42b3ed8386c1e3a49e47f1ff050d76eac182aae7d5e129c70bc72be58876040518082815260200191505060405180910390a181340390503373ffffffffffffffffffffffffffffffffffffffff166108fc829081150290604051600060405180830381858888f1935050505015801561103d573d6000803e3d6000fd5b5050505050505050565b600660009054906101000a900473ffffffffffffffffffffffffffffffffffffffff1673ffffffffffffffffffffffffffffffffffffffff163373ffffffffffffffffffffffffffffffffffffffff161415156110a357600080fd5b6110ac81612b15565b50565b6110b833612015565b15156110c357600080fd5b6110cc81612b6f565b50565b600660009054906101000a900473ffffffffffffffffffffffffffffffffffffffff1673ffffffffffffffffffffffffffffffffffffffff163373ffffffffffffffffffffffffffffffffffffffff1614151561112b57600080fd5b61113481612bc9565b50565b806002600881111561114557fe5b600c600083815260200190815260200160002060080160009054906101000a900460ff16600881111561117457fe5b14151561118057600080fd5b81600c600082815260200190815260200160002060020160009054906101000a900473ffffffffffffffffffffffffffffffffffffffff1673ffffffffffffffffffffffffffffffffffffffff163373ffffffffffffffffffffffffffffffffffffffff161415156111f157600080fd5b6003600c600085815260200190815260200160002060080160006101000a81548160ff0219169083600881111561122457fe5b02179055507f8e6726f8d2f741f82d85e916f3ef287630d60ed46eecd3663c1c7b746d257bb2836040518082815260200191505060405180910390a1505050565b60008061127133612015565b151561127c57600080fd5b826007600881111561128a57fe5b600c600083815260200190815260200160002060080160009054906101000a900460ff1660088111156112b957fe5b1415156112c557600080fd5b83600080600c60008481526020019081526020016000206007015491508134101515156112f157600080fd5b339550600c6000888152602001908152602001600020600701549450600c600088815260200190815260200160002060090160009054906101000a900473ffffffffffffffffffffffffffffffffffffffff1673ffffffffffffffffffffffffffffffffffffffff166108fc869081150290604051600060405180830381858888f19350505050158015611389573d6000803e3d6000fd5b5085600c600089815260200190815260200160002060020160006101000a81548173ffffffffffffffffffffffffffffffffffffffff021916908373ffffffffffffffffffffffffffffffffffffffff16021790555085600c6000898152602001908152602001600020600a0160006101000a81548173ffffffffffffffffffffffffffffffffffffffff021916908373ffffffffffffffffffffffffffffffffffffffff1602179055506008600c600089815260200190815260200160002060080160006101000a81548160ff0219169083600881111561146757fe5b02179055507f92f64ca637d023f354075a4be751b169c1a8a9ccb6d33cdd0cb3520543995727876040518082815260200191505060405180910390a181340390503373ffffffffffffffffffffffffffffffffffffffff166108fc829081150290604051600060405180830381858888f193505050501580156114ee573d6000803e3d6000fd5b5050505050505050565b600960009054906101000a900473ffffffffffffffffffffffffffffffffffffffff1673ffffffffffffffffffffffffffffffffffffffff163373ffffffffffffffffffffffffffffffffffffffff16141561158957600960009054906101000a900473ffffffffffffffffffffffffffffffffffffffff1673ffffffffffffffffffffffffffffffffffffffff16ff5b565b60006115a1826003612c2390919063ffffffff16565b9050919050565b6000600860009054906101000a900473ffffffffffffffffffffffffffffffffffffffff16905090565b6115db33612b15565b565b80600560088111156115eb57fe5b600c600083815260200190815260200160002060080160009054906101000a900460ff16600881111561161a57fe5b14151561162657600080fd5b600c600083815260200190815260200160002060080160019054906101000a900473ffffffffffffffffffffffffffffffffffffffff168073ffffffffffffffffffffffffffffffffffffffff163373ffffffffffffffffffffffffffffffffffffffff1614151561169757600080fd5b6006600c600085815260200190815260200160002060080160006101000a81548160ff021916908360088111156116ca57fe5b02179055507f1be14062eb5593433fd020113a1ebbe1da6f6b301396cefd2072ab2c2e8e5e05836040518082815260200191505060405180910390a1505050565b6000611721826007612c2390919063ffffffff16565b9050919050565b6000806000806060806060600c600089815260200190815260200160002060000154600c60008a815260200190815260200160002060010154600c60008b815260200190815260200160002060020160009054906101000a900473ffffffffffffffffffffffffffffffffffffffff16600c60008c815260200190815260200160002060030160009054906101000a900473ffffffffffffffffffffffffffffffffffffffff16600c60008d8152602001908152602001600020600401600c60008e8152602001908152602001600020600501600c60008f8152602001908152602001600020600601828054600181600116156101000203166002900480601f0160208091040260200160405190810160405280929190818152602001828054600181600116156101000203166002900480156118a65780601f1061187b576101008083540402835291602001916118a6565b820191906000526020600020905b81548152906001019060200180831161188957829003601f168201915b50505050509250818054600181600116156101000203166002900480601f0160208091040260200160405190810160405280929190818152602001828054600181600116156101000203166002900480156119425780601f1061191757610100808354040283529160200191611942565b820191906000526020600020905b81548152906001019060200180831161192557829003601f168201915b50505050509150808054600181600116156101000203166002900480601f0160208091040260200160405190810160405280929190818152602001828054600181600116156101000203166002900480156119de5780601f106119b3576101008083540402835291602001916119de565b820191906000526020600020905b8154815290600101906020018083116119c157829003601f168201915b505050505090509650965096509650965096509650919395979092949650565b600660009054906101000a900473ffffffffffffffffffffffffffffffffffffffff1673ffffffffffffffffffffffffffffffffffffffff163373ffffffffffffffffffffffffffffffffffffffff16141515611a5a57600080fd5b611a6381612cb7565b50565b6000600b54905090565b600960009054906101000a900473ffffffffffffffffffffffffffffffffffffffff1673ffffffffffffffffffffffffffffffffffffffff163373ffffffffffffffffffffffffffffffffffffffff16141515611acc57600080fd5b600073ffffffffffffffffffffffffffffffffffffffff16600860009054906101000a900473ffffffffffffffffffffffffffffffffffffffff1673ffffffffffffffffffffffffffffffffffffffff167f5c486528ec3e3f0ea91181cff8116f02bfa350e03b8b6f12e00765adbb5af85c60405160405180910390a36000600860006101000a81548173ffffffffffffffffffffffffffffffffffffffff021916908373ffffffffffffffffffffffffffffffffffffffff160217905550565b600080600080600080600080611ba16130d4565b600c60008b8152602001908152602001600020610180604051908101604052908160008201548152602001600182015481526020016002820160009054906101000a900473ffffffffffffffffffffffffffffffffffffffff1673ffffffffffffffffffffffffffffffffffffffff1673ffffffffffffffffffffffffffffffffffffffff1681526020016003820160009054906101000a900473ffffffffffffffffffffffffffffffffffffffff1673ffffffffffffffffffffffffffffffffffffffff1673ffffffffffffffffffffffffffffffffffffffff168152602001600482018054600181600116156101000203166002900480601f016020809104026020016040519081016040528092919081815260200182805460018160011615610100020316600290048015611d1a5780601f10611cef57610100808354040283529160200191611d1a565b820191906000526020600020905b815481529060010190602001808311611cfd57829003601f168201915b50505050508152602001600582018054600181600116156101000203166002900480601f016020809104026020016040519081016040528092919081815260200182805460018160011615610100020316600290048015611dbc5780601f10611d9157610100808354040283529160200191611dbc565b820191906000526020600020905b815481529060010190602001808311611d9f57829003601f168201915b50505050508152602001600682018054600181600116156101000203166002900480601f016020809104026020016040519081016040528092919081815260200182805460018160011615610100020316600290048015611e5e5780601f10611e3357610100808354040283529160200191611e5e565b820191906000526020600020905b815481529060010190602001808311611e4157829003601f168201915b50505050508152602001600782015481526020016008820160009054906101000a900460ff166008811115611e8f57fe5b6008811115611e9a57fe5b81526020016008820160019054906101000a900473ffffffffffffffffffffffffffffffffffffffff1673ffffffffffffffffffffffffffffffffffffffff1673ffffffffffffffffffffffffffffffffffffffff1681526020016009820160009054906101000a900473ffffffffffffffffffffffffffffffffffffffff1673ffffffffffffffffffffffffffffffffffffffff1673ffffffffffffffffffffffffffffffffffffffff168152602001600a820160009054906101000a900473ffffffffffffffffffffffffffffffffffffffff1673ffffffffffffffffffffffffffffffffffffffff1673ffffffffffffffffffffffffffffffffffffffff16815250509050806000015181602001518260e0015183610100015184606001518561012001518661014001518761016001519850985098509850985098509850985050919395975091939597565b611ff3336125a0565b1515611ffe57600080fd5b61200781612d11565b50565b61201333612d6b565b565b600061202b826004612c2390919063ffffffff16565b9050919050565b61203b3361158b565b151561204657600080fd5b61204f81612dc5565b50565b6000600860009054906101000a900473ffffffffffffffffffffffffffffffffffffffff1673ffffffffffffffffffffffffffffffffffffffff163373ffffffffffffffffffffffffffffffffffffffff1614905090565b6120b3336125a0565b15156120be57600080fd5b8460001515600e600083815260200190815260200160002060009054906101000a900460ff1615151415156120f257600080fd5b61018060405190810160405280600b5481526020018781526020013373ffffffffffffffffffffffffffffffffffffffff1681526020013373ffffffffffffffffffffffffffffffffffffffff1681526020018681526020018581526020018481526020018381526020016000600881111561216a57fe5b8152602001600073ffffffffffffffffffffffffffffffffffffffff168152602001600073ffffffffffffffffffffffffffffffffffffffff168152602001600073ffffffffffffffffffffffffffffffffffffffff16815250600c6000888152602001908152602001600020600082015181600001556020820151816001015560408201518160020160006101000a81548173ffffffffffffffffffffffffffffffffffffffff021916908373ffffffffffffffffffffffffffffffffffffffff16021790555060608201518160030160006101000a81548173ffffffffffffffffffffffffffffffffffffffff021916908373ffffffffffffffffffffffffffffffffffffffff16021790555060808201518160040190805190602001906122959291906131af565b5060a08201518160050190805190602001906122b29291906131af565b5060c08201518160060190805190602001906122cf9291906131af565b5060e082015181600701556101008201518160080160006101000a81548160ff021916908360088111156122ff57fe5b02179055506101208201518160080160016101000a81548173ffffffffffffffffffffffffffffffffffffffff021916908373ffffffffffffffffffffffffffffffffffffffff1602179055506101408201518160090160006101000a81548173ffffffffffffffffffffffffffffffffffffffff021916908373ffffffffffffffffffffffffffffffffffffffff16021790555061016082015181600a0160006101000a81548173ffffffffffffffffffffffffffffffffffffffff021916908373ffffffffffffffffffffffffffffffffffffffff1602179055509050506001600b5401600b819055507f8e55ccfc9778ff8eba1646d765cf1982537ce0f9257054a17b48aad745250183866040518082815260200191505060405180910390a16001600e600088815260200190815260200160002060006101000a81548160ff021916908315150217905550505050505050565b816003600881111561246457fe5b600c600083815260200190815260200160002060080160009054906101000a900460ff16600881111561249357fe5b14151561249f57600080fd5b82600c600082815260200190815260200160002060020160009054906101000a900473ffffffffffffffffffffffffffffffffffffffff1673ffffffffffffffffffffffffffffffffffffffff163373ffffffffffffffffffffffffffffffffffffffff1614151561251057600080fd5b82600c6000868152602001908152602001600020600701819055506004600c600086815260200190815260200160002060080160006101000a81548160ff0219169083600881111561255e57fe5b02179055507f0c70d89b176b3792b9ff1a750105ae23454802a52d42ea9c264300e29fd8a3e1846040518082815260200191505060405180910390a150505050565b60006125b6826000612c2390919063ffffffff16565b9050919050565b6000806125c93361158b565b15156125d457600080fd5b82600460088111156125e257fe5b600c600083815260200190815260200160002060080160009054906101000a900460ff16600881111561261157fe5b14151561261d57600080fd5b83600080600c600084815260200190815260200160002060070154915081341015151561264957600080fd5b339550600c6000888152602001908152602001600020600701549450600c600088815260200190815260200160002060080160019054906101000a900473ffffffffffffffffffffffffffffffffffffffff1673ffffffffffffffffffffffffffffffffffffffff166108fc869081150290604051600060405180830381858888f193505050501580156126e1573d6000803e3d6000fd5b5085600c600089815260200190815260200160002060020160006101000a81548173ffffffffffffffffffffffffffffffffffffffff021916908373ffffffffffffffffffffffffffffffffffffffff16021790555085600c600089815260200190815260200160002060090160006101000a81548173ffffffffffffffffffffffffffffffffffffffff021916908373ffffffffffffffffffffffffffffffffffffffff1602179055506005600c600089815260200190815260200160002060080160006101000a81548160ff021916908360088111156127bf57fe5b02179055507f35c1f488a01b1acf5d1ec452c90e1d7745a5a02917ebe44a60c747753516d64e876040518082815260200191505060405180910390a181340390503373ffffffffffffffffffffffffffffffffffffffff166108fc829081150290604051600060405180830381858888f19350505050158015612846573d6000803e3d6000fd5b5050505050505050565b61285933612cb7565b565b6128643361170b565b151561286f57600080fd5b61287881612e1f565b50565b600660009054906101000a900473ffffffffffffffffffffffffffffffffffffffff1673ffffffffffffffffffffffffffffffffffffffff163373ffffffffffffffffffffffffffffffffffffffff161415156128d757600080fd5b6128e081612d6b565b50565b600960009054906101000a900473ffffffffffffffffffffffffffffffffffffffff1673ffffffffffffffffffffffffffffffffffffffff163373ffffffffffffffffffffffffffffffffffffffff1614151561293f57600080fd5b61294881612e79565b50565b806001600881111561295957fe5b600c600083815260200190815260200160002060080160009054906101000a900460ff16600881111561298857fe5b14151561299457600080fd5b600c600083815260200190815260200160002060030160009054906101000a900473ffffffffffffffffffffffffffffffffffffffff168073ffffffffffffffffffffffffffffffffffffffff163373ffffffffffffffffffffffffffffffffffffffff16141515612a0557600080fd5b6002600c600085815260200190815260200160002060080160006101000a81548160ff02191690836008811115612a3857fe5b02179055507f2482bc8f0d6a8c2449dde1438fbafc1c8935bf5eabfa4395f1aedf411168ef2e836040518082815260200191505060405180910390a1505050565b81600c600082815260200190815260200160002060020160009054906101000a900473ffffffffffffffffffffffffffffffffffffffff1673ffffffffffffffffffffffffffffffffffffffff163373ffffffffffffffffffffffffffffffffffffffff16141515612aea57600080fd5b81600c600085815260200190815260200160002060070181905550505050565b612b1333612bc9565b565b612b29816004612f7590919063ffffffff16565b8073ffffffffffffffffffffffffffffffffffffffff167fe3f5ed5f263f1f01764a96edfc7d025f511ec5f7d180e8816908b78bcf74f09860405160405180910390a250565b612b8381600461302490919063ffffffff16565b8073ffffffffffffffffffffffffffffffffffffffff167f28b26e7a3d20aedbc5f8f2ebf7da671c0491723a2b78f47a097b0e46dee0714260405160405180910390a250565b612bdd816007612f7590919063ffffffff16565b8073ffffffffffffffffffffffffffffffffffffffff167f7f865f710a7604537eb2bc0334f082fa642d210a705398937f53663384485b2860405160405180910390a250565b60008073ffffffffffffffffffffffffffffffffffffffff168273ffffffffffffffffffffffffffffffffffffffff1614151515612c6057600080fd5b8260000160008373ffffffffffffffffffffffffffffffffffffffff1673ffffffffffffffffffffffffffffffffffffffff16815260200190815260200160002060009054906101000a900460ff16905092915050565b612ccb816003612f7590919063ffffffff16565b8073ffffffffffffffffffffffffffffffffffffffff167fdb7176e79cffef81cb01767dd0447a0b24bb72ca9778d4b245581086b2a7e6db60405160405180910390a250565b612d2581600061302490919063ffffffff16565b8073ffffffffffffffffffffffffffffffffffffffff167f2e0ded4123377a3c2bc9a26f1717655a129e2f20752924d42e730ec89c83dbd060405160405180910390a250565b612d7f816000612f7590919063ffffffff16565b8073ffffffffffffffffffffffffffffffffffffffff167fa5e0f060af304ab17dd418c7927e3da3ae7868189bf387aee09ab179ccc572f260405160405180910390a250565b612dd981600361302490919063ffffffff16565b8073ffffffffffffffffffffffffffffffffffffffff167f71ae26cad02663e3d92efd6ec56031a80d74a20c0ab4183faa8bf262261c9baa60405160405180910390a250565b612e3381600761302490919063ffffffff16565b8073ffffffffffffffffffffffffffffffffffffffff167fd8a7ad7929975a375d2b12bf49040286b5b105df0fe351f10df6d85e5b7142f760405160405180910390a250565b600073ffffffffffffffffffffffffffffffffffffffff168173ffffffffffffffffffffffffffffffffffffffff1614151515612eb557600080fd5b8073ffffffffffffffffffffffffffffffffffffffff16600860009054906101000a900473ffffffffffffffffffffffffffffffffffffffff1673ffffffffffffffffffffffffffffffffffffffff167f5c486528ec3e3f0ea91181cff8116f02bfa350e03b8b6f12e00765adbb5af85c60405160405180910390a380600860006101000a81548173ffffffffffffffffffffffffffffffffffffffff021916908373ffffffffffffffffffffffffffffffffffffffff16021790555050565b600073ffffffffffffffffffffffffffffffffffffffff168173ffffffffffffffffffffffffffffffffffffffff1614151515612fb157600080fd5b612fbb8282612c23565b1515612fc657600080fd5b60008260000160008373ffffffffffffffffffffffffffffffffffffffff1673ffffffffffffffffffffffffffffffffffffffff16815260200190815260200160002060006101000a81548160ff0219169083151502179055505050565b600073ffffffffffffffffffffffffffffffffffffffff168173ffffffffffffffffffffffffffffffffffffffff161415151561306057600080fd5b61306a8282612c23565b15151561307657600080fd5b60018260000160008373ffffffffffffffffffffffffffffffffffffffff1673ffffffffffffffffffffffffffffffffffffffff16815260200190815260200160002060006101000a81548160ff0219169083151502179055505050565b610180604051908101604052806000815260200160008152602001600073ffffffffffffffffffffffffffffffffffffffff168152602001600073ffffffffffffffffffffffffffffffffffffffff168152602001606081526020016060815260200160608152602001600081526020016000600881111561315257fe5b8152602001600073ffffffffffffffffffffffffffffffffffffffff168152602001600073ffffffffffffffffffffffffffffffffffffffff168152602001600073ffffffffffffffffffffffffffffffffffffffff1681525090565b828054600181600116156101000203166002900490600052602060002090601f016020900481019282601f106131f057805160ff191683800117855561321e565b8280016001018555821561321e579182015b8281111561321d578251825591602001919060010190613202565b5b50905061322b919061322f565b5090565b61325191905b8082111561324d576000816000905550600101613235565b5090565b905600a165627a7a72305820075c2fe0e248bd93eced5676e14082bcf0b758ceceef10ea1905480ad10823820029",
  "source": "pragma solidity ^0.4.24;\n\nimport \"../ProduceAccessControl/FarmerRole.sol\";\nimport \"../ProduceAccessControl/RetailerRole.sol\";\nimport \"../ProduceAccessControl/ConsumerRole.sol\";\nimport \"../ProduceAccessControl/WholesalerRole.sol\";\nimport \"../Producecore/Ownable.sol\";\n\n// Define a contract 'Supplychain', inherent the relevant contracts\ncontract SupplyChain is FarmerRole, RetailerRole, ConsumerRole, WholesalerRole, Ownable {\n\n  // Define 'owner'\n  address owner;\n\n  // Define a variable called 'upc' for Universal Product Code (UPC)\n  uint  upc;\n\n  // Define a variable called 'sku' for Stock Keeping Unit (SKU)\n  uint  sku;\n\n  // Define a public mapping 'items' that maps the UPC to an Item.\n  mapping (uint => Item) items;\n\n  // Define a public mapping 'itemsHistory' that maps the UPC to an array of TxHash, \n  // that track its journey through the supply chain -- to be sent from DApp.\n  mapping (uint => string[]) itemsHistory;\n\n  // Define a mapping to map used upc \n  mapping(uint => bool) upcUsed;\n  \n  // Define enum 'State' with the following values:\n  enum State \n  { \n    Harvested,  // 0\n    WSold,  // 1\n    WShipped,     // 2\n    WReceived,    // 3\n    Packaged,       // 4\n    RSold,    // 5\n    RShipped,   // 6\n    RReceived,   // 7\n    Sold         // 8\n    }\n\n  State constant defaultState = State.Harvested; //Default state = 0\n\n  // Define a struct 'Item' with the following fields:\n  struct Item {\n    uint    sku;  // Stock Keeping Unit (SKU)\n    uint    upc; // Universal Product Code (UPC), generated by the Farmer, goes on the package, can be verified by the Consumer\n    address ownerID;  // Metamask-Ethereum address of the current owner as the product moves through 8 stages\n    address originFarmerID; // Metamask-Ethereum address of the Farmer\n    string  originFarmName; // Farmer Name\n    string  originFarmInformation;  // Farmer Information\n    string  productNotes; // Product Notes\n    uint    productPrice; // Product Price\n    State   itemState;  // Product State as represented in the enum above (in number)\n    address wholesalerID;  // Metamask-Ethereum address of the Distributor\n    address retailerID; // Metamask-Ethereum address of the Retailer\n    address consumerID; // Metamask-Ethereum address of the Consumer\n  }\n\n  // Define 8 events with the same 8 state values and accept 'upc' as input argument\n  event Harvested(uint upc);\n  event WSold(uint upc);\n  event WShipped(uint upc);\n  event WReceived(uint upc);\n  event Packaged(uint upc);\n  event RSold(uint upc);\n  event RShipped(uint upc);\n  event RReceived(uint upc);\n  event Sold(uint upc);\n\n  // Define a modifier to allow only the item owner to perform certain action\n  modifier onlyItemOwner(uint _upc){\n    require(msg.sender == items[_upc].ownerID);\n    _;\n  }\n\n  // Define a modifer that checks to see if msg.sender == owner of the contract\n  modifier onlyOwner() {\n    require(msg.sender == owner);\n    _;\n  }\n\n  // Define a modifer that verifies the Caller\n  modifier verifyCaller (address _address) {\n    require(msg.sender == _address); \n    _;\n  }\n  \n  // Define a modifier that checks the price and refunds the remaining balance\n  modifier checkValue(uint _upc) {\n    uint _price = items[_upc].productPrice;\n    require(msg.value >= _price);\n    _;     //If the condition is true, _; on the line beneath is where the function body is placed. In other words, the function will be executed.\n    uint amountToReturn = msg.value - _price;\n    msg.sender.transfer(amountToReturn); //depends on who is buying - need to modify Can we use msg.sender?\n  }\n\n  // Define a modifier that checks if an item.state of a upc is Harvested\n  modifier harvested(uint _upc) {\n    require(items[_upc].itemState == State.Harvested);\n    _;\n  }\n\n  // Define a modifier that checks if an item.state of a upc is Sold to Wholesaler\n  modifier wsold(uint _upc) {\n    require(items[_upc].itemState == State.WSold);\n    _;\n  }\n  \n  // Define a modifier that checks if an item.state of a upc is Shipped to Wholesaler\n  modifier wshipped(uint _upc) {\n    require(items[_upc].itemState == State.WShipped);\n    _;\n  }\n\n  // Define a modifier that checks if an item.state of a upc is Received by the Wholesaler\n  modifier wreceived(uint _upc) {\n    require(items[_upc].itemState == State.WReceived);\n    _;\n  }\n\n  // Define a modifier that checks if an item.state of a upc is packaged\n  modifier packaged(uint _upc) {\n    require(items[_upc].itemState == State.Packaged);\n    _;\n  }\n  \n  // Define a modifier that checks if an item.state of a upc is sold to a retailer\n  modifier rsold(uint _upc) {\n    require(items[_upc].itemState == State.RSold);\n    _;\n  }\n\n  // Define a modifier that checks if an item.state of a upc is shipped to a retailer\n  modifier rshipped(uint _upc) {\n    require(items[_upc].itemState == State.RShipped);\n    _;\n  }\n\n  // Define a modifier that checks if an item.state of a upc is received by a retailer\n  modifier rreceived(uint _upc) {\n    require(items[_upc].itemState == State.RReceived);\n    _;\n  }\n\n  modifier newitem (uint _upc) {\n    require(upcUsed[_upc] == false);\n    _;\n  }\n\n  // In the constructor set 'owner' to the address that instantiated the contract\n  // and set 'sku' to 1\n  // and set 'upc' to 1\n  constructor() public payable {\n    owner = msg.sender;\n    sku = 1;\n    upc = 1;\n  }\n\n  // return the latest skucount\n  function checksku() public view returns (uint){\n    return sku;\n  }\n  \n  // Define a function 'kill' if required\n  function kill() public {\n    if (msg.sender == owner) {\n      selfdestruct(owner);  //sends all of the contract's current balance to address\n    }\n  }\n\n  // Define a function 'harvestItem' that allows a farmer to mark an item 'Harvested'\n  function harvestItem(uint _upc, string _originFarmName, string _originFarmInformation, string  _productNotes, uint _productPrice) onlyFarmer() newitem (_upc) public \n  {\n    // Add the new item as part of Harvest\n    items[_upc] = Item({sku: sku, upc: _upc, ownerID: msg.sender, originFarmerID: msg.sender, originFarmName: _originFarmName, originFarmInformation: _originFarmInformation, productNotes: _productNotes, productPrice: _productPrice, itemState: State.Harvested, wholesalerID: address(0), retailerID: address(0), consumerID: address(0)});\n    // Increase sku\n    sku = sku + 1;\n    // Emit the appropriate event\n    emit Harvested(_upc);\n    //mark upc as used\n    upcUsed[_upc] = true;\n    \n  }\n\n  //allow a wholesaler to buy an item from a farmer\n  function BuyWhole(uint _upc) onlyWholesaler() harvested(_upc) checkValue(_upc) public payable {\n    address buyer = msg.sender;\n    uint price = items[_upc].productPrice;\n    items[_upc].originFarmerID.transfer(price);\n    items[_upc].ownerID = buyer;\n    items[_upc].wholesalerID = buyer;\n    items[_upc].itemState = State.WSold;\n    emit WSold (_upc);\n  }\n\n  //allow the original farmer to set the sold product's status as shipped\n  function ShippedWhole(uint _upc) wsold(_upc) verifyCaller (items[_upc].originFarmerID) public {\n    items[_upc].itemState = State.WShipped;\n    emit WShipped(_upc);\n  }\n\n  //allow the wholesaler to mark an item as received \n  function WholeReceived (uint _upc) wshipped(_upc) onlyItemOwner (_upc) public {\n    items[_upc].itemState = State.WReceived;\n    emit WReceived(_upc);\n  }\n\n  //allow wholesaler to mark the item as packaged and set the price\n  function isPackaged (uint _upc, uint _price) wreceived(_upc) onlyItemOwner (_upc) public {\n    items[_upc].productPrice = _price;\n    items[_upc].itemState = State.Packaged;\n    emit Packaged(_upc);\n  }\n\n  //allow retailer to buy an item\n  function BuyRe (uint _upc) onlyRetailer() packaged(_upc) checkValue(_upc) public payable {\n    address buyer = msg.sender;\n    uint price = items[_upc].productPrice;\n    items[_upc].wholesalerID.transfer(price);\n    items[_upc].ownerID = buyer;\n    items[_upc].retailerID = buyer;\n    items[_upc].itemState = State.RSold;\n    emit RSold (_upc);\n  }   \n\n  //allow wholesaler to change the status of an item to shipped\n  function ShippedRe(uint _upc) rsold(_upc) verifyCaller (items[_upc].wholesalerID) public {\n    items[_upc].itemState = State.RShipped;\n    emit RShipped(_upc);\n  }\n\n  //allow a retailer to mark the item as received and set the price of the item\n  function ReReceived (uint _upc, uint _price) rshipped(_upc) onlyItemOwner (_upc) public {\n    items[_upc].productPrice = _price;\n    items[_upc].itemState = State.RReceived;\n    emit RReceived(_upc);\n  }\n\n  //allow consumer to mark an item as bought\n  function Buy (uint _upc) onlyConsumer() rreceived(_upc) checkValue(_upc) public payable {\n    address buyer = msg.sender;\n    uint price = items[_upc].productPrice;\n    items[_upc].retailerID.transfer(price);\n    items[_upc].ownerID = buyer;\n    items[_upc].consumerID = buyer;\n    items[_upc].itemState = State.Sold;\n    emit Sold (_upc);\n  }\n\n  //allow item owner to set price of the item\n  function SetPrice (uint _upc, uint _price) onlyItemOwner (_upc) public {\n    items[_upc].productPrice = _price;  \n  }\n\n  // Define a function 'fetchItemFarmer' that fetches the basic farmer and farm data\n  function fetchItemFarmer(uint _upc) public view returns (uint, uint, address, address, string, string, string){\n    return (items[_upc].sku, items[_upc].upc, items[_upc].ownerID, items[_upc].originFarmerID, items[_upc].originFarmName, items[_upc].originFarmInformation, items[_upc].productNotes);\n  }\n\n  // Define a function 'fetchItemLogistics' that fetches the logistical data\n  function fetchItemLogistics(uint _upc) public view returns (uint, uint, uint, State, address, address, address, address){\n    Item memory i = items[_upc];//stack too long, need to shorten by this method\n    return (i.sku, i.upc, i.productPrice, i.itemState, i.originFarmerID, i.wholesalerID, i.retailerID, i.consumerID);\n  }\n\n}\n\n",
  "sourcePath": "C:\\Users\\user\\Desktop\\nd1309-Project-6b-Example-Template-master\\project-6\\contracts\\Producebase\\SupplyChain.sol",
  "compiler": {
    "name": "solc",
    "version": "0.4.24+commit.e67f0147.Emscripten.clang"
  },
  "schemaVersion": "2.0.1",
  "updatedAt": "2019-03-10T06:53:39.994Z"
}