{
  "contractName": "WholesalerRole",
  "abi": [
    {
      "inputs": [],
      "payable": false,
      "stateMutability": "nonpayable",
      "type": "constructor"
    },
    {
      "anonymous": false,
      "inputs": [
        {
          "indexed": true,
          "name": "account",
          "type": "address"
        }
      ],
      "name": "WholesalerAdded",
      "type": "event"
    },
    {
      "anonymous": false,
      "inputs": [
        {
          "indexed": true,
          "name": "account",
          "type": "address"
        }
      ],
      "name": "WholesalerRemoved",
      "type": "event"
    },
    {
      "constant": true,
      "inputs": [
        {
          "name": "account",
          "type": "address"
        }
      ],
      "name": "isWholesaler",
      "outputs": [
        {
          "name": "",
          "type": "bool"
        }
      ],
      "payable": false,
      "stateMutability": "view",
      "type": "function"
    },
    {
      "constant": false,
      "inputs": [
        {
          "name": "account",
          "type": "address"
        }
      ],
      "name": "addWholesaler",
      "outputs": [],
      "payable": false,
      "stateMutability": "nonpayable",
      "type": "function"
    },
    {
      "constant": false,
      "inputs": [],
      "name": "renounceWholesaler",
      "outputs": [],
      "payable": false,
      "stateMutability": "nonpayable",
      "type": "function"
    },
    {
      "constant": false,
      "inputs": [
        {
          "name": "_address",
          "type": "address"
        }
      ],
      "name": "removeWholesaler",
      "outputs": [],
      "payable": false,
      "stateMutability": "nonpayable",
      "type": "function"
    }
  ],
  "bytecode": "0x608060405234801561001057600080fd5b506100293361006e640100000000026401000000009004565b336000806101000a81548173ffffffffffffffffffffffffffffffffffffffff021916908373ffffffffffffffffffffffffffffffffffffffff160217905550610228565b61008f8160016100d564010000000002610405179091906401000000009004565b8073ffffffffffffffffffffffffffffffffffffffff167fd8a7ad7929975a375d2b12bf49040286b5b105df0fe351f10df6d85e5b7142f760405160405180910390a250565b600073ffffffffffffffffffffffffffffffffffffffff168173ffffffffffffffffffffffffffffffffffffffff161415151561011157600080fd5b61012a8282610194640100000000026401000000009004565b15151561013657600080fd5b60018260000160008373ffffffffffffffffffffffffffffffffffffffff1673ffffffffffffffffffffffffffffffffffffffff16815260200190815260200160002060006101000a81548160ff0219169083151502179055505050565b60008073ffffffffffffffffffffffffffffffffffffffff168273ffffffffffffffffffffffffffffffffffffffff16141515156101d157600080fd5b8260000160008373ffffffffffffffffffffffffffffffffffffffff1673ffffffffffffffffffffffffffffffffffffffff16815260200190815260200160002060009054906101000a900460ff16905092915050565b6104e1806102376000396000f300608060405260043610610062576000357c0100000000000000000000000000000000000000000000000000000000900463ffffffff16806328dc27271461006757806364d1ba1f146100aa578063de63bdb914610105578063fe19d15214610148575b600080fd5b34801561007357600080fd5b506100a8600480360381019080803573ffffffffffffffffffffffffffffffffffffffff16906020019092919050505061015f565b005b3480156100b657600080fd5b506100eb600480360381019080803573ffffffffffffffffffffffffffffffffffffffff1690602001909291905050506101c6565b604051808215151515815260200191505060405180910390f35b34801561011157600080fd5b50610146600480360381019080803573ffffffffffffffffffffffffffffffffffffffff1690602001909291905050506101e3565b005b34801561015457600080fd5b5061015d610203565b005b6000809054906101000a900473ffffffffffffffffffffffffffffffffffffffff1673ffffffffffffffffffffffffffffffffffffffff163373ffffffffffffffffffffffffffffffffffffffff161415156101ba57600080fd5b6101c38161020e565b50565b60006101dc82600161026890919063ffffffff16565b9050919050565b6101ec336101c6565b15156101f757600080fd5b610200816102fc565b50565b61020c3361020e565b565b61022281600161035690919063ffffffff16565b8073ffffffffffffffffffffffffffffffffffffffff167f7f865f710a7604537eb2bc0334f082fa642d210a705398937f53663384485b2860405160405180910390a250565b60008073ffffffffffffffffffffffffffffffffffffffff168273ffffffffffffffffffffffffffffffffffffffff16141515156102a557600080fd5b8260000160008373ffffffffffffffffffffffffffffffffffffffff1673ffffffffffffffffffffffffffffffffffffffff16815260200190815260200160002060009054906101000a900460ff16905092915050565b61031081600161040590919063ffffffff16565b8073ffffffffffffffffffffffffffffffffffffffff167fd8a7ad7929975a375d2b12bf49040286b5b105df0fe351f10df6d85e5b7142f760405160405180910390a250565b600073ffffffffffffffffffffffffffffffffffffffff168173ffffffffffffffffffffffffffffffffffffffff161415151561039257600080fd5b61039c8282610268565b15156103a757600080fd5b60008260000160008373ffffffffffffffffffffffffffffffffffffffff1673ffffffffffffffffffffffffffffffffffffffff16815260200190815260200160002060006101000a81548160ff0219169083151502179055505050565b600073ffffffffffffffffffffffffffffffffffffffff168173ffffffffffffffffffffffffffffffffffffffff161415151561044157600080fd5b61044b8282610268565b15151561045757600080fd5b60018260000160008373ffffffffffffffffffffffffffffffffffffffff1673ffffffffffffffffffffffffffffffffffffffff16815260200190815260200160002060006101000a81548160ff02191690831515021790555050505600a165627a7a723058208effb7d6abdaa10ae945a72a31583830c44af949e01f8a8eb98f07571b80d9140029",
  "source": "pragma solidity ^0.4.24;\n\n// Import the library 'Roles'\nimport \"./Roles.sol\";\n\n// Define a contract 'WholesalerRole' to manage this role - add, remove, check\ncontract WholesalerRole {\n  \n  using Roles for Roles.Role;\n  //define a variable to store contract owner address\n  address owner;\n  // Define 2 events, one for Adding, and other for Removing\n  event WholesalerAdded(address indexed account);\n  event WholesalerRemoved(address indexed account);\n\n  // Define a struct 'Wholesaler' by inheriting from 'Roles' library, struct Role\n  Roles.Role private wholesaler;\n\n  \n\n  // In the constructor make the address that deploys this contract the 1st Wholesaler and contract owner\n  constructor() public {\n    _addWholesaler(msg.sender);\n    owner = msg.sender;\n  }\n\n  // Define a modifier that checks to see if msg.sender has the appropriate role\n  modifier onlyWholesaler() {\n    require(isWholesaler(msg.sender));\n    _;\n  }\n  // Check if it is the contract owner \n  modifier onlyCOwner() {\n    require(msg.sender == owner);\n    _;\n  }\n\n\n  // Define a function 'isWholesaler' to check this role\n  function isWholesaler(address account) public view returns (bool) {\n    return wholesaler.has(account);\n  }\n\n  // Define a function 'addWholesaler' that adds this role\n  function addWholesaler(address account) public onlyWholesaler() {\n    _addWholesaler(account);\n  }\n\n  // Define a function 'renounceWholesaler' to renounce this role\n  function renounceWholesaler() public {\n    _removeWholesaler(msg.sender);\n  }\n\n  // Define a function 'removeWholesaler' to remove this role to be executed by the contract owner only\n  function removeWholesaler(address _address) public onlyCOwner {\n    _removeWholesaler(_address);\n  }\n\n  // Define an internal function '_addWholesaler' to add this role, called by 'addWholesaler'\n  function _addWholesaler(address account) internal {\n    wholesaler.add(account);\n    emit WholesalerAdded(account);\n  }\n\n  // Define an internal function '_removeWholesaler' to remove this role, called by 'removeWholesaler'\n  function _removeWholesaler(address account) internal {\n    wholesaler.remove(account);\n    emit WholesalerRemoved(account);\n  }\n}",
  "sourcePath": "C:\\Users\\user\\Desktop\\nd1309-Project-6b-Example-Template-master\\project-6\\contracts\\ProduceAccessControl\\WholesalerRole.sol",
  "compiler": {
    "name": "solc",
    "version": "0.4.24+commit.e67f0147.Emscripten.clang"
  },
  "schemaVersion": "2.0.1",
  "updatedAt": "2019-03-10T06:53:39.974Z"
}